{
  "_format": "hh-sol-artifact-1",
  "contractName": "LiquidityPool",
  "sourceName": "contracts/LiquidityPool.sol",
  "abi": [
    {
      "inputs": [
        {
          "internalType": "address",
          "name": "_token",
          "type": "address"
        },
        {
          "internalType": "address",
          "name": "_marginAccount",
          "type": "address"
        }
      ],
      "stateMutability": "nonpayable",
      "type": "constructor"
    },
    {
      "inputs": [],
      "name": "AccessControlBadConfirmation",
      "type": "error"
    },
    {
      "inputs": [
        {
          "internalType": "address",
          "name": "account",
          "type": "address"
        },
        {
          "internalType": "bytes32",
          "name": "neededRole",
          "type": "bytes32"
        }
      ],
      "name": "AccessControlUnauthorizedAccount",
      "type": "error"
    },
    {
      "anonymous": false,
      "inputs": [
        {
          "indexed": true,
          "internalType": "address",
          "name": "borrower",
          "type": "address"
        },
        {
          "indexed": false,
          "internalType": "uint256",
          "name": "amount",
          "type": "uint256"
        }
      ],
      "name": "Borrowed",
      "type": "event"
    },
    {
      "anonymous": false,
      "inputs": [
        {
          "indexed": true,
          "internalType": "address",
          "name": "provider",
          "type": "address"
        },
        {
          "indexed": false,
          "internalType": "contract IERC20",
          "name": "token",
          "type": "address"
        },
        {
          "indexed": false,
          "internalType": "uint256",
          "name": "amount",
          "type": "uint256"
        }
      ],
      "name": "EarningsWithdrawn",
      "type": "event"
    },
    {
      "anonymous": false,
      "inputs": [
        {
          "indexed": true,
          "internalType": "address",
          "name": "provider",
          "type": "address"
        },
        {
          "indexed": false,
          "internalType": "contract IERC20",
          "name": "token",
          "type": "address"
        },
        {
          "indexed": false,
          "internalType": "uint256",
          "name": "amount",
          "type": "uint256"
        }
      ],
      "name": "LiquidityProvided",
      "type": "event"
    },
    {
      "anonymous": false,
      "inputs": [
        {
          "indexed": true,
          "internalType": "address",
          "name": "provider",
          "type": "address"
        },
        {
          "indexed": false,
          "internalType": "contract IERC20",
          "name": "token",
          "type": "address"
        },
        {
          "indexed": false,
          "internalType": "uint256",
          "name": "amount",
          "type": "uint256"
        }
      ],
      "name": "LiquidityWithdrawn",
      "type": "event"
    },
    {
      "anonymous": false,
      "inputs": [
        {
          "indexed": true,
          "internalType": "address",
          "name": "borrower",
          "type": "address"
        },
        {
          "indexed": false,
          "internalType": "uint256",
          "name": "amount",
          "type": "uint256"
        }
      ],
      "name": "Repaid",
      "type": "event"
    },
    {
      "anonymous": false,
      "inputs": [
        {
          "indexed": true,
          "internalType": "bytes32",
          "name": "role",
          "type": "bytes32"
        },
        {
          "indexed": true,
          "internalType": "bytes32",
          "name": "previousAdminRole",
          "type": "bytes32"
        },
        {
          "indexed": true,
          "internalType": "bytes32",
          "name": "newAdminRole",
          "type": "bytes32"
        }
      ],
      "name": "RoleAdminChanged",
      "type": "event"
    },
    {
      "anonymous": false,
      "inputs": [
        {
          "indexed": true,
          "internalType": "bytes32",
          "name": "role",
          "type": "bytes32"
        },
        {
          "indexed": true,
          "internalType": "address",
          "name": "account",
          "type": "address"
        },
        {
          "indexed": true,
          "internalType": "address",
          "name": "sender",
          "type": "address"
        }
      ],
      "name": "RoleGranted",
      "type": "event"
    },
    {
      "anonymous": false,
      "inputs": [
        {
          "indexed": true,
          "internalType": "bytes32",
          "name": "role",
          "type": "bytes32"
        },
        {
          "indexed": true,
          "internalType": "address",
          "name": "account",
          "type": "address"
        },
        {
          "indexed": true,
          "internalType": "address",
          "name": "sender",
          "type": "address"
        }
      ],
      "name": "RoleRevoked",
      "type": "event"
    },
    {
      "inputs": [],
      "name": "BORROWER_ROLE",
      "outputs": [
        {
          "internalType": "bytes32",
          "name": "",
          "type": "bytes32"
        }
      ],
      "stateMutability": "view",
      "type": "function"
    },
    {
      "inputs": [],
      "name": "DEFAULT_ADMIN_ROLE",
      "outputs": [
        {
          "internalType": "bytes32",
          "name": "",
          "type": "bytes32"
        }
      ],
      "stateMutability": "view",
      "type": "function"
    },
    {
      "inputs": [
        {
          "internalType": "uint256",
          "name": "amount",
          "type": "uint256"
        },
        {
          "internalType": "address",
          "name": "borrower",
          "type": "address"
        }
      ],
      "name": "borrow",
      "outputs": [],
      "stateMutability": "nonpayable",
      "type": "function"
    },
    {
      "inputs": [
        {
          "internalType": "address",
          "name": "",
          "type": "address"
        }
      ],
      "name": "borrowedAmounts",
      "outputs": [
        {
          "internalType": "uint256",
          "name": "",
          "type": "uint256"
        }
      ],
      "stateMutability": "view",
      "type": "function"
    },
    {
      "inputs": [
        {
          "internalType": "uint256",
          "name": "amount",
          "type": "uint256"
        }
      ],
      "name": "deposit",
      "outputs": [],
      "stateMutability": "nonpayable",
      "type": "function"
    },
    {
      "inputs": [
        {
          "internalType": "uint256",
          "name": "earnings",
          "type": "uint256"
        }
      ],
      "name": "distributeEarnings",
      "outputs": [],
      "stateMutability": "nonpayable",
      "type": "function"
    },
    {
      "inputs": [
        {
          "internalType": "bytes32",
          "name": "role",
          "type": "bytes32"
        }
      ],
      "name": "getRoleAdmin",
      "outputs": [
        {
          "internalType": "bytes32",
          "name": "",
          "type": "bytes32"
        }
      ],
      "stateMutability": "view",
      "type": "function"
    },
    {
      "inputs": [
        {
          "internalType": "bytes32",
          "name": "role",
          "type": "bytes32"
        },
        {
          "internalType": "address",
          "name": "account",
          "type": "address"
        }
      ],
      "name": "grantRole",
      "outputs": [],
      "stateMutability": "nonpayable",
      "type": "function"
    },
    {
      "inputs": [
        {
          "internalType": "bytes32",
          "name": "role",
          "type": "bytes32"
        },
        {
          "internalType": "address",
          "name": "account",
          "type": "address"
        }
      ],
      "name": "hasRole",
      "outputs": [
        {
          "internalType": "bool",
          "name": "",
          "type": "bool"
        }
      ],
      "stateMutability": "view",
      "type": "function"
    },
    {
      "inputs": [
        {
          "internalType": "uint256",
          "name": "",
          "type": "uint256"
        }
      ],
      "name": "providerAddresses",
      "outputs": [
        {
          "internalType": "address",
          "name": "",
          "type": "address"
        }
      ],
      "stateMutability": "view",
      "type": "function"
    },
    {
      "inputs": [
        {
          "internalType": "address",
          "name": "",
          "type": "address"
        }
      ],
      "name": "providers",
      "outputs": [
        {
          "internalType": "uint256",
          "name": "share",
          "type": "uint256"
        },
        {
          "internalType": "uint256",
          "name": "earnings",
          "type": "uint256"
        }
      ],
      "stateMutability": "view",
      "type": "function"
    },
    {
      "inputs": [
        {
          "internalType": "bytes32",
          "name": "role",
          "type": "bytes32"
        },
        {
          "internalType": "address",
          "name": "callerConfirmation",
          "type": "address"
        }
      ],
      "name": "renounceRole",
      "outputs": [],
      "stateMutability": "nonpayable",
      "type": "function"
    },
    {
      "inputs": [
        {
          "internalType": "uint256",
          "name": "amount",
          "type": "uint256"
        }
      ],
      "name": "repay",
      "outputs": [],
      "stateMutability": "nonpayable",
      "type": "function"
    },
    {
      "inputs": [
        {
          "internalType": "bytes32",
          "name": "role",
          "type": "bytes32"
        },
        {
          "internalType": "address",
          "name": "account",
          "type": "address"
        }
      ],
      "name": "revokeRole",
      "outputs": [],
      "stateMutability": "nonpayable",
      "type": "function"
    },
    {
      "inputs": [
        {
          "internalType": "bytes4",
          "name": "interfaceId",
          "type": "bytes4"
        }
      ],
      "name": "supportsInterface",
      "outputs": [
        {
          "internalType": "bool",
          "name": "",
          "type": "bool"
        }
      ],
      "stateMutability": "view",
      "type": "function"
    },
    {
      "inputs": [],
      "name": "token",
      "outputs": [
        {
          "internalType": "contract IERC20",
          "name": "",
          "type": "address"
        }
      ],
      "stateMutability": "view",
      "type": "function"
    },
    {
      "inputs": [],
      "name": "totalEarnings",
      "outputs": [
        {
          "internalType": "uint256",
          "name": "",
          "type": "uint256"
        }
      ],
      "stateMutability": "view",
      "type": "function"
    },
    {
      "inputs": [],
      "name": "totalShares",
      "outputs": [
        {
          "internalType": "uint256",
          "name": "",
          "type": "uint256"
        }
      ],
      "stateMutability": "view",
      "type": "function"
    },
    {
      "inputs": [],
      "name": "totalVolume",
      "outputs": [
        {
          "internalType": "uint256",
          "name": "",
          "type": "uint256"
        }
      ],
      "stateMutability": "view",
      "type": "function"
    },
    {
      "inputs": [
        {
          "internalType": "uint256",
          "name": "amount",
          "type": "uint256"
        }
      ],
      "name": "withdrawEarnings",
      "outputs": [],
      "stateMutability": "nonpayable",
      "type": "function"
    },
    {
      "inputs": [
        {
          "internalType": "uint256",
          "name": "amount",
          "type": "uint256"
        }
      ],
      "name": "withdrawLiquidity",
      "outputs": [],
      "stateMutability": "nonpayable",
      "type": "function"
    }
  ],
  "bytecode": "0x60806040523480156200001157600080fd5b506040516200258d3803806200258d8339818101604052810190620000379190620002d3565b81600760006101000a81548173ffffffffffffffffffffffffffffffffffffffff021916908373ffffffffffffffffffffffffffffffffffffffff16021790555080600860006101000a81548173ffffffffffffffffffffffffffffffffffffffff021916908373ffffffffffffffffffffffffffffffffffffffff160217905550620000eb7f2344277e405079ec07749d374ba0b5862a4e45a6a05ac889dbb4a991c6f9354d82620000f460201b60201c565b5050506200031a565b6000620001088383620001f760201b60201c565b620001ec57600160008085815260200190815260200160002060000160008473ffffffffffffffffffffffffffffffffffffffff1673ffffffffffffffffffffffffffffffffffffffff16815260200190815260200160002060006101000a81548160ff021916908315150217905550620001886200026160201b60201c565b73ffffffffffffffffffffffffffffffffffffffff168273ffffffffffffffffffffffffffffffffffffffff16847f2f8788117e7eff1d82e926ec794901d17c78024a50270940304540a733656f0d60405160405180910390a460019050620001f1565b600090505b92915050565b600080600084815260200190815260200160002060000160008373ffffffffffffffffffffffffffffffffffffffff1673ffffffffffffffffffffffffffffffffffffffff16815260200190815260200160002060009054906101000a900460ff16905092915050565b600033905090565b600080fd5b600073ffffffffffffffffffffffffffffffffffffffff82169050919050565b60006200029b826200026e565b9050919050565b620002ad816200028e565b8114620002b957600080fd5b50565b600081519050620002cd81620002a2565b92915050565b60008060408385031215620002ed57620002ec62000269565b5b6000620002fd85828601620002bc565b92505060206200031085828601620002bc565b9150509250929050565b612263806200032a6000396000f3fe608060405234801561001057600080fd5b50600436106101375760003560e01c8063447ffec1116100b85780636e70096e1161007c5780636e70096e1461034d57806391d1485414610369578063a217fddf14610399578063b6b55f25146103b7578063d547741f146103d3578063fc0c546a146103ef57610137565b8063447ffec114610297578063478230f7146102b35780634b3fd148146102e35780635f81a57c146102ff578063618dd9a81461031d57610137565b80632df3eba4116100ff5780632df3eba4146102075780632f2ff15d1461022557806336568abe14610241578063371fd8e61461025d5780633a98ef391461027957610137565b806301ffc9a71461013c5780630787bc271461016c5780630a861f2a1461019d5780630e7b949e146101b9578063248a9ca3146101d7575b600080fd5b61015660048036038101906101519190611913565b61040d565b604051610163919061195b565b60405180910390f35b610186600480360381019061018191906119d4565b610487565b604051610194929190611a1a565b60405180910390f35b6101b760048036038101906101b29190611a6f565b6104ab565b005b6101c16108ec565b6040516101ce9190611ab5565b60405180910390f35b6101f160048036038101906101ec9190611afc565b610910565b6040516101fe9190611ab5565b60405180910390f35b61020f61092f565b60405161021c9190611b29565b60405180910390f35b61023f600480360381019061023a9190611b44565b610935565b005b61025b60048036038101906102569190611b44565b610957565b005b61027760048036038101906102729190611a6f565b6109d2565b005b610281610ba3565b60405161028e9190611b29565b60405180910390f35b6102b160048036038101906102ac9190611a6f565b610ba9565b005b6102cd60048036038101906102c891906119d4565b610d54565b6040516102da9190611b29565b60405180910390f35b6102fd60048036038101906102f89190611b84565b610d6c565b005b61030761101a565b6040516103149190611b29565b60405180910390f35b61033760048036038101906103329190611a6f565b611020565b6040516103449190611bd3565b60405180910390f35b61036760048036038101906103629190611a6f565b61105f565b005b610383600480360381019061037e9190611b44565b6112af565b604051610390919061195b565b60405180910390f35b6103a1611319565b6040516103ae9190611ab5565b60405180910390f35b6103d160048036038101906103cc9190611a6f565b611320565b005b6103ed60048036038101906103e89190611b44565b6115b4565b005b6103f76115d6565b6040516104049190611c4d565b60405180910390f35b60007f7965db0b000000000000000000000000000000000000000000000000000000007bffffffffffffffffffffffffffffffffffffffffffffffffffffffff1916827bffffffffffffffffffffffffffffffffffffffffffffffffffffffff19161480610480575061047f826115fc565b5b9050919050565b60016020528060005260406000206000915090508060000154908060010154905082565b600081116104ee576040517f08c379a00000000000000000000000000000000000000000000000000000000081526004016104e590611cc5565b60405180910390fd5b80600160003373ffffffffffffffffffffffffffffffffffffffff1673ffffffffffffffffffffffffffffffffffffffff168152602001908152602001600020600101541015610573576040517f08c379a000000000000000000000000000000000000000000000000000000000815260040161056a90611d31565b60405180910390fd5b80600160003373ffffffffffffffffffffffffffffffffffffffff1673ffffffffffffffffffffffffffffffffffffffff16815260200190815260200160002060000160008282546105c59190611d80565b9250508190555080600460008282546105de9190611d80565b9250508190555080600560008282546105f79190611d80565b92505081905550600760009054906101000a900473ffffffffffffffffffffffffffffffffffffffff1673ffffffffffffffffffffffffffffffffffffffff1663a9059cbb33836040518363ffffffff1660e01b815260040161065b929190611db4565b6020604051808303816000875af115801561067a573d6000803e3d6000fd5b505050506040513d601f19601f8201168201806040525081019061069e9190611e09565b506000600160003373ffffffffffffffffffffffffffffffffffffffff1673ffffffffffffffffffffffffffffffffffffffff16815260200190815260200160002060000154036108775760005b600380549050811015610875573373ffffffffffffffffffffffffffffffffffffffff166003828154811061072457610723611e36565b5b9060005260206000200160009054906101000a900473ffffffffffffffffffffffffffffffffffffffff1673ffffffffffffffffffffffffffffffffffffffff1603610862576003600160038054905061077e9190611d80565b8154811061078f5761078e611e36565b5b9060005260206000200160009054906101000a900473ffffffffffffffffffffffffffffffffffffffff16600382815481106107ce576107cd611e36565b5b9060005260206000200160006101000a81548173ffffffffffffffffffffffffffffffffffffffff021916908373ffffffffffffffffffffffffffffffffffffffff160217905550600380548061082857610827611e65565b5b6001900381819060005260206000200160006101000a81549073ffffffffffffffffffffffffffffffffffffffff02191690559055610875565b808061086d90611e94565b9150506106ec565b505b3373ffffffffffffffffffffffffffffffffffffffff167f83aa598dd3e269af677698c6847b3ba594a67d286a771d01099aafa911a91b64600760009054906101000a900473ffffffffffffffffffffffffffffffffffffffff16836040516108e1929190611edc565b60405180910390a250565b7f2344277e405079ec07749d374ba0b5862a4e45a6a05ac889dbb4a991c6f9354d81565b6000806000838152602001908152602001600020600101549050919050565b60065481565b61093e82610910565b61094781611666565b610951838361167a565b50505050565b61095f61176b565b73ffffffffffffffffffffffffffffffffffffffff168173ffffffffffffffffffffffffffffffffffffffff16146109c3576040517f6697b23200000000000000000000000000000000000000000000000000000000815260040160405180910390fd5b6109cd8282611773565b505050565b7f2344277e405079ec07749d374ba0b5862a4e45a6a05ac889dbb4a991c6f9354d6109fc81611666565b60008211610a3f576040517f08c379a0000000000000000000000000000000000000000000000000000000008152600401610a3690611cc5565b60405180910390fd5b600760009054906101000a900473ffffffffffffffffffffffffffffffffffffffff1673ffffffffffffffffffffffffffffffffffffffff166323b872dd3330856040518463ffffffff1660e01b8152600401610a9e93929190611f05565b6020604051808303816000875af1158015610abd573d6000803e3d6000fd5b505050506040513d601f19601f82011682018060405250810190610ae19190611e09565b5081600260003373ffffffffffffffffffffffffffffffffffffffff1673ffffffffffffffffffffffffffffffffffffffff1681526020019081526020016000206000828254610b319190611d80565b925050819055508160056000828254610b4a9190611f3c565b925050819055503373ffffffffffffffffffffffffffffffffffffffff167f0516911bcc3a0a7412a44601057c0a0a1ec628bde049a84284bc42886653448883604051610b979190611b29565b60405180910390a25050565b60045481565b7f2344277e405079ec07749d374ba0b5862a4e45a6a05ac889dbb4a991c6f9354d610bd381611666565b60008211610c16576040517f08c379a0000000000000000000000000000000000000000000000000000000008152600401610c0d90611fbc565b60405180910390fd5b8160066000828254610c289190611f3c565b9250508190555060005b600380549050811015610d4f57600060038281548110610c5557610c54611e36565b5b9060005260206000200160009054906101000a900473ffffffffffffffffffffffffffffffffffffffff1690506000600454600160008473ffffffffffffffffffffffffffffffffffffffff1673ffffffffffffffffffffffffffffffffffffffff1681526020019081526020016000206000015486610cd59190611fdc565b610cdf919061204d565b905080600160008473ffffffffffffffffffffffffffffffffffffffff1673ffffffffffffffffffffffffffffffffffffffff1681526020019081526020016000206001016000828254610d339190611f3c565b9250508190555050508080610d4790611e94565b915050610c32565b505050565b60026020528060005260406000206000915090505481565b7f2344277e405079ec07749d374ba0b5862a4e45a6a05ac889dbb4a991c6f9354d610d9681611666565b60008311610dd9576040517f08c379a0000000000000000000000000000000000000000000000000000000008152600401610dd090611cc5565b60405180910390fd5b82600760009054906101000a900473ffffffffffffffffffffffffffffffffffffffff1673ffffffffffffffffffffffffffffffffffffffff166370a08231306040518263ffffffff1660e01b8152600401610e359190611bd3565b602060405180830381865afa158015610e52573d6000803e3d6000fd5b505050506040513d601f19601f82011682018060405250810190610e769190612093565b1015610eb7576040517f08c379a0000000000000000000000000000000000000000000000000000000008152600401610eae9061210c565b60405180910390fd5b600760009054906101000a900473ffffffffffffffffffffffffffffffffffffffff1673ffffffffffffffffffffffffffffffffffffffff1663a9059cbb83856040518363ffffffff1660e01b8152600401610f14929190611db4565b6020604051808303816000875af1158015610f33573d6000803e3d6000fd5b505050506040513d601f19601f82011682018060405250810190610f579190611e09565b5082600260008473ffffffffffffffffffffffffffffffffffffffff1673ffffffffffffffffffffffffffffffffffffffff1681526020019081526020016000206000828254610fa79190611f3c565b925050819055508260056000828254610fc09190611d80565b925050819055508173ffffffffffffffffffffffffffffffffffffffff167fac59582e5396aca512fa873a2047e7f4c80f8f55d4a06cb34a78a0187f62719f8460405161100d9190611b29565b60405180910390a2505050565b60055481565b6003818154811061103057600080fd5b906000526020600020016000915054906101000a900473ffffffffffffffffffffffffffffffffffffffff1681565b600081116110a2576040517f08c379a000000000000000000000000000000000000000000000000000000000815260040161109990611cc5565b60405180910390fd5b80600160003373ffffffffffffffffffffffffffffffffffffffff1673ffffffffffffffffffffffffffffffffffffffff168152602001908152602001600020600101541015611127576040517f08c379a000000000000000000000000000000000000000000000000000000000815260040161111e90612178565b60405180910390fd5b80600160003373ffffffffffffffffffffffffffffffffffffffff1673ffffffffffffffffffffffffffffffffffffffff16815260200190815260200160002060010160008282546111799190611d80565b9250508190555080600660008282546111929190611d80565b92505081905550600760009054906101000a900473ffffffffffffffffffffffffffffffffffffffff1673ffffffffffffffffffffffffffffffffffffffff1663a9059cbb33836040518363ffffffff1660e01b81526004016111f6929190611db4565b6020604051808303816000875af1158015611215573d6000803e3d6000fd5b505050506040513d601f19601f820116820180604052508101906112399190611e09565b503373ffffffffffffffffffffffffffffffffffffffff167f0c8584df0a37548f26644c41809e5f908b58e8888dd441691e8a2174ec89f305600760009054906101000a900473ffffffffffffffffffffffffffffffffffffffff16836040516112a4929190611edc565b60405180910390a250565b600080600084815260200190815260200160002060000160008373ffffffffffffffffffffffffffffffffffffffff1673ffffffffffffffffffffffffffffffffffffffff16815260200190815260200160002060009054906101000a900460ff16905092915050565b6000801b81565b60008111611363576040517f08c379a000000000000000000000000000000000000000000000000000000000815260040161135a906121e4565b60405180910390fd5b600760009054906101000a900473ffffffffffffffffffffffffffffffffffffffff1673ffffffffffffffffffffffffffffffffffffffff166323b872dd3330846040518463ffffffff1660e01b81526004016113c293929190611f05565b6020604051808303816000875af11580156113e1573d6000803e3d6000fd5b505050506040513d601f19601f820116820180604052508101906114059190611e09565b506000600160003373ffffffffffffffffffffffffffffffffffffffff1673ffffffffffffffffffffffffffffffffffffffff16815260200190815260200160002060000154036114b4576003339080600181540180825580915050600190039060005260206000200160009091909190916101000a81548173ffffffffffffffffffffffffffffffffffffffff021916908373ffffffffffffffffffffffffffffffffffffffff1602179055505b80600160003373ffffffffffffffffffffffffffffffffffffffff1673ffffffffffffffffffffffffffffffffffffffff16815260200190815260200160002060000160008282546115069190611f3c565b92505081905550806004600082825461151f9190611f3c565b9250508190555080600560008282546115389190611f3c565b925050819055503373ffffffffffffffffffffffffffffffffffffffff167f05e7be2689d5d20fd06bc749aa0d767080c4216945cacf5249f739d5a561d48f600760009054906101000a900473ffffffffffffffffffffffffffffffffffffffff16836040516115a9929190611edc565b60405180910390a250565b6115bd82610910565b6115c681611666565b6115d08383611773565b50505050565b600760009054906101000a900473ffffffffffffffffffffffffffffffffffffffff1681565b60007f01ffc9a7000000000000000000000000000000000000000000000000000000007bffffffffffffffffffffffffffffffffffffffffffffffffffffffff1916827bffffffffffffffffffffffffffffffffffffffffffffffffffffffff1916149050919050565b6116778161167261176b565b611865565b50565b600061168683836112af565b61176057600160008085815260200190815260200160002060000160008473ffffffffffffffffffffffffffffffffffffffff1673ffffffffffffffffffffffffffffffffffffffff16815260200190815260200160002060006101000a81548160ff0219169083151502179055506116fd61176b565b73ffffffffffffffffffffffffffffffffffffffff168273ffffffffffffffffffffffffffffffffffffffff16847f2f8788117e7eff1d82e926ec794901d17c78024a50270940304540a733656f0d60405160405180910390a460019050611765565b600090505b92915050565b600033905090565b600061177f83836112af565b1561185a57600080600085815260200190815260200160002060000160008473ffffffffffffffffffffffffffffffffffffffff1673ffffffffffffffffffffffffffffffffffffffff16815260200190815260200160002060006101000a81548160ff0219169083151502179055506117f761176b565b73ffffffffffffffffffffffffffffffffffffffff168273ffffffffffffffffffffffffffffffffffffffff16847ff6391f5c32d9c69d2a47ea670b442974b53935d1edc7fd64eb21e047a839171b60405160405180910390a46001905061185f565b600090505b92915050565b61186f82826112af565b6118b25780826040517fe2517d3f0000000000000000000000000000000000000000000000000000000081526004016118a9929190612204565b60405180910390fd5b5050565b600080fd5b60007fffffffff0000000000000000000000000000000000000000000000000000000082169050919050565b6118f0816118bb565b81146118fb57600080fd5b50565b60008135905061190d816118e7565b92915050565b600060208284031215611929576119286118b6565b5b6000611937848285016118fe565b91505092915050565b60008115159050919050565b61195581611940565b82525050565b6000602082019050611970600083018461194c565b92915050565b600073ffffffffffffffffffffffffffffffffffffffff82169050919050565b60006119a182611976565b9050919050565b6119b181611996565b81146119bc57600080fd5b50565b6000813590506119ce816119a8565b92915050565b6000602082840312156119ea576119e96118b6565b5b60006119f8848285016119bf565b91505092915050565b6000819050919050565b611a1481611a01565b82525050565b6000604082019050611a2f6000830185611a0b565b611a3c6020830184611a0b565b9392505050565b611a4c81611a01565b8114611a5757600080fd5b50565b600081359050611a6981611a43565b92915050565b600060208284031215611a8557611a846118b6565b5b6000611a9384828501611a5a565b91505092915050565b6000819050919050565b611aaf81611a9c565b82525050565b6000602082019050611aca6000830184611aa6565b92915050565b611ad981611a9c565b8114611ae457600080fd5b50565b600081359050611af681611ad0565b92915050565b600060208284031215611b1257611b116118b6565b5b6000611b2084828501611ae7565b91505092915050565b6000602082019050611b3e6000830184611a0b565b92915050565b60008060408385031215611b5b57611b5a6118b6565b5b6000611b6985828601611ae7565b9250506020611b7a858286016119bf565b9150509250929050565b60008060408385031215611b9b57611b9a6118b6565b5b6000611ba985828601611a5a565b9250506020611bba858286016119bf565b9150509250929050565b611bcd81611996565b82525050565b6000602082019050611be86000830184611bc4565b92915050565b6000819050919050565b6000611c13611c0e611c0984611976565b611bee565b611976565b9050919050565b6000611c2582611bf8565b9050919050565b6000611c3782611c1a565b9050919050565b611c4781611c2c565b82525050565b6000602082019050611c626000830184611c3e565b92915050565b600082825260208201905092915050565b7f416d6f756e74206d7573742062652067726561746572207468616e20302e0000600082015250565b6000611caf601e83611c68565b9150611cba82611c79565b602082019050919050565b60006020820190508181036000830152611cde81611ca2565b9050919050565b7f496e73756666696369656e742073686172652e00000000000000000000000000600082015250565b6000611d1b601383611c68565b9150611d2682611ce5565b602082019050919050565b60006020820190508181036000830152611d4a81611d0e565b9050919050565b7f4e487b7100000000000000000000000000000000000000000000000000000000600052601160045260246000fd5b6000611d8b82611a01565b9150611d9683611a01565b9250828203905081811115611dae57611dad611d51565b5b92915050565b6000604082019050611dc96000830185611bc4565b611dd66020830184611a0b565b9392505050565b611de681611940565b8114611df157600080fd5b50565b600081519050611e0381611ddd565b92915050565b600060208284031215611e1f57611e1e6118b6565b5b6000611e2d84828501611df4565b91505092915050565b7f4e487b7100000000000000000000000000000000000000000000000000000000600052603260045260246000fd5b7f4e487b7100000000000000000000000000000000000000000000000000000000600052603160045260246000fd5b6000611e9f82611a01565b91507fffffffffffffffffffffffffffffffffffffffffffffffffffffffffffffffff8203611ed157611ed0611d51565b5b600182019050919050565b6000604082019050611ef16000830185611c3e565b611efe6020830184611a0b565b9392505050565b6000606082019050611f1a6000830186611bc4565b611f276020830185611bc4565b611f346040830184611a0b565b949350505050565b6000611f4782611a01565b9150611f5283611a01565b9250828201905080821115611f6a57611f69611d51565b5b92915050565b7f4561726e696e6773206d7573742062652067726561746572207468616e20302e600082015250565b6000611fa6602083611c68565b9150611fb182611f70565b602082019050919050565b60006020820190508181036000830152611fd581611f99565b9050919050565b6000611fe782611a01565b9150611ff283611a01565b925082820261200081611a01565b9150828204841483151761201757612016611d51565b5b5092915050565b7f4e487b7100000000000000000000000000000000000000000000000000000000600052601260045260246000fd5b600061205882611a01565b915061206383611a01565b9250826120735761207261201e565b5b828204905092915050565b60008151905061208d81611a43565b92915050565b6000602082840312156120a9576120a86118b6565b5b60006120b78482850161207e565b91505092915050565b7f496e73756666696369656e74206c69717569646974792e000000000000000000600082015250565b60006120f6601783611c68565b9150612101826120c0565b602082019050919050565b60006020820190508181036000830152612125816120e9565b9050919050565b7f496e73756666696369656e7420656172696e67732e0000000000000000000000600082015250565b6000612162601583611c68565b915061216d8261212c565b602082019050919050565b6000602082019050818103600083015261219181612155565b9050919050565b7f416d6f756e74206d7573742062652067726561746572207468616e2030000000600082015250565b60006121ce601d83611c68565b91506121d982612198565b602082019050919050565b600060208201905081810360008301526121fd816121c1565b9050919050565b60006040820190506122196000830185611bc4565b6122266020830184611aa6565b939250505056fea264697066735822122035b82276ed3ed2c676ef61b10fce036dcebf060a26cee9a478960b5634e4d94c64736f6c63430008140033",
  "linkReferences": {},
  "deployedLinkReferences": {}
}