{
  "_format": "hh-sol-artifact-1",
  "contractName": "MarginAccount",
  "sourceName": "contracts/MarginAccount.sol",
  "abi": [
    {
      "inputs": [
        {
          "internalType": "address[]",
          "name": "_tokens",
          "type": "address[]"
        },
        {
          "internalType": "address[]",
          "name": "_pools",
          "type": "address[]"
        },
        {
          "internalType": "address",
          "name": "_mockUniswap",
          "type": "address"
        }
      ],
      "stateMutability": "nonpayable",
      "type": "constructor"
    },
    {
      "inputs": [
        {
          "internalType": "address",
          "name": "owner",
          "type": "address"
        }
      ],
      "name": "OwnableInvalidOwner",
      "type": "error"
    },
    {
      "inputs": [
        {
          "internalType": "address",
          "name": "account",
          "type": "address"
        }
      ],
      "name": "OwnableUnauthorizedAccount",
      "type": "error"
    },
    {
      "anonymous": false,
      "inputs": [
        {
          "indexed": true,
          "internalType": "address",
          "name": "trader",
          "type": "address"
        },
        {
          "indexed": false,
          "internalType": "contract IERC20",
          "name": "token",
          "type": "address"
        },
        {
          "indexed": false,
          "internalType": "uint256",
          "name": "amount",
          "type": "uint256"
        }
      ],
      "name": "Borrowed",
      "type": "event"
    },
    {
      "anonymous": false,
      "inputs": [
        {
          "indexed": true,
          "internalType": "address",
          "name": "trader",
          "type": "address"
        },
        {
          "indexed": false,
          "internalType": "contract IERC20",
          "name": "token",
          "type": "address"
        },
        {
          "indexed": false,
          "internalType": "uint256",
          "name": "amount",
          "type": "uint256"
        }
      ],
      "name": "CollateralDeposited",
      "type": "event"
    },
    {
      "anonymous": false,
      "inputs": [
        {
          "indexed": true,
          "internalType": "address",
          "name": "trader",
          "type": "address"
        },
        {
          "indexed": false,
          "internalType": "contract IERC20",
          "name": "token",
          "type": "address"
        },
        {
          "indexed": false,
          "internalType": "uint256",
          "name": "amount",
          "type": "uint256"
        }
      ],
      "name": "CollateralWithdrawn",
      "type": "event"
    },
    {
      "anonymous": false,
      "inputs": [
        {
          "indexed": true,
          "internalType": "address",
          "name": "trader",
          "type": "address"
        }
      ],
      "name": "Liquidated",
      "type": "event"
    },
    {
      "anonymous": false,
      "inputs": [
        {
          "indexed": true,
          "internalType": "address",
          "name": "previousOwner",
          "type": "address"
        },
        {
          "indexed": true,
          "internalType": "address",
          "name": "newOwner",
          "type": "address"
        }
      ],
      "name": "OwnershipTransferred",
      "type": "event"
    },
    {
      "anonymous": false,
      "inputs": [
        {
          "indexed": true,
          "internalType": "address",
          "name": "trader",
          "type": "address"
        },
        {
          "indexed": false,
          "internalType": "contract IERC20",
          "name": "token",
          "type": "address"
        },
        {
          "indexed": false,
          "internalType": "uint256",
          "name": "amount",
          "type": "uint256"
        }
      ],
      "name": "Repaid",
      "type": "event"
    },
    {
      "inputs": [],
      "name": "USDC",
      "outputs": [
        {
          "internalType": "address",
          "name": "",
          "type": "address"
        }
      ],
      "stateMutability": "view",
      "type": "function"
    },
    {
      "inputs": [
        {
          "internalType": "contract IERC20",
          "name": "token",
          "type": "address"
        },
        {
          "internalType": "uint256",
          "name": "amount",
          "type": "uint256"
        }
      ],
      "name": "borrow",
      "outputs": [],
      "stateMutability": "nonpayable",
      "type": "function"
    },
    {
      "inputs": [
        {
          "internalType": "contract IERC20",
          "name": "token",
          "type": "address"
        },
        {
          "internalType": "uint256",
          "name": "amount",
          "type": "uint256"
        }
      ],
      "name": "depositCollateral",
      "outputs": [],
      "stateMutability": "nonpayable",
      "type": "function"
    },
    {
      "inputs": [
        {
          "internalType": "address",
          "name": "trader",
          "type": "address"
        },
        {
          "internalType": "contract IERC20",
          "name": "token",
          "type": "address"
        }
      ],
      "name": "getAccountDetails",
      "outputs": [
        {
          "internalType": "uint256",
          "name": "collateral",
          "type": "uint256"
        },
        {
          "internalType": "uint256",
          "name": "debt",
          "type": "uint256"
        }
      ],
      "stateMutability": "view",
      "type": "function"
    },
    {
      "inputs": [
        {
          "internalType": "address",
          "name": "trader",
          "type": "address"
        }
      ],
      "name": "getTotalCollateralValue",
      "outputs": [
        {
          "internalType": "uint256",
          "name": "",
          "type": "uint256"
        }
      ],
      "stateMutability": "view",
      "type": "function"
    },
    {
      "inputs": [
        {
          "internalType": "address",
          "name": "trader",
          "type": "address"
        }
      ],
      "name": "getTotalDebtValue",
      "outputs": [
        {
          "internalType": "uint256",
          "name": "",
          "type": "uint256"
        }
      ],
      "stateMutability": "view",
      "type": "function"
    },
    {
      "inputs": [
        {
          "internalType": "address",
          "name": "token",
          "type": "address"
        }
      ],
      "name": "isSupportedToken",
      "outputs": [
        {
          "internalType": "bool",
          "name": "",
          "type": "bool"
        }
      ],
      "stateMutability": "view",
      "type": "function"
    },
    {
      "inputs": [
        {
          "internalType": "address",
          "name": "trader",
          "type": "address"
        }
      ],
      "name": "liquidate",
      "outputs": [],
      "stateMutability": "nonpayable",
      "type": "function"
    },
    {
      "inputs": [],
      "name": "mockUniswap",
      "outputs": [
        {
          "internalType": "contract MockUniswap",
          "name": "",
          "type": "address"
        }
      ],
      "stateMutability": "view",
      "type": "function"
    },
    {
      "inputs": [],
      "name": "owner",
      "outputs": [
        {
          "internalType": "address",
          "name": "",
          "type": "address"
        }
      ],
      "stateMutability": "view",
      "type": "function"
    },
    {
      "inputs": [],
      "name": "renounceOwnership",
      "outputs": [],
      "stateMutability": "nonpayable",
      "type": "function"
    },
    {
      "inputs": [
        {
          "internalType": "contract IERC20",
          "name": "token",
          "type": "address"
        },
        {
          "internalType": "uint256",
          "name": "amount",
          "type": "uint256"
        }
      ],
      "name": "repay",
      "outputs": [],
      "stateMutability": "nonpayable",
      "type": "function"
    },
    {
      "inputs": [
        {
          "internalType": "uint256",
          "name": "",
          "type": "uint256"
        }
      ],
      "name": "supportedTokens",
      "outputs": [
        {
          "internalType": "address",
          "name": "",
          "type": "address"
        }
      ],
      "stateMutability": "view",
      "type": "function"
    },
    {
      "inputs": [
        {
          "internalType": "contract IERC20",
          "name": "",
          "type": "address"
        }
      ],
      "name": "tokenToPool",
      "outputs": [
        {
          "internalType": "contract LiquidityPool",
          "name": "",
          "type": "address"
        }
      ],
      "stateMutability": "view",
      "type": "function"
    },
    {
      "inputs": [
        {
          "internalType": "address",
          "name": "newOwner",
          "type": "address"
        }
      ],
      "name": "transferOwnership",
      "outputs": [],
      "stateMutability": "nonpayable",
      "type": "function"
    },
    {
      "inputs": [
        {
          "internalType": "contract IERC20",
          "name": "token",
          "type": "address"
        },
        {
          "internalType": "uint256",
          "name": "amount",
          "type": "uint256"
        }
      ],
      "name": "withdrawCollateral",
      "outputs": [],
      "stateMutability": "nonpayable",
      "type": "function"
    }
  ],
  "bytecode": "0x608060405273a0b86991c6218b36c1d19d4a2e9eb0ce3606eb48600460006101000a81548173ffffffffffffffffffffffffffffffffffffffff021916908373ffffffffffffffffffffffffffffffffffffffff1602179055503480156200006657600080fd5b5060405162003d8138038062003d8183398181016040528101906200008c9190620007b2565b33600073ffffffffffffffffffffffffffffffffffffffff168173ffffffffffffffffffffffffffffffffffffffff1603620001025760006040517f1e4fbdf7000000000000000000000000000000000000000000000000000000008152600401620000f991906200085d565b60405180910390fd5b62000113816200045260201b60201c565b5081518351146200015b576040517f08c379a00000000000000000000000000000000000000000000000000000000081526004016200015290620008db565b60405180910390fd5b600073ffffffffffffffffffffffffffffffffffffffff168173ffffffffffffffffffffffffffffffffffffffff1603620001cd576040517f08c379a0000000000000000000000000000000000000000000000000000000008152600401620001c4906200094d565b60405180910390fd5b60005b83518110156200030e57600073ffffffffffffffffffffffffffffffffffffffff168482815181106200020857620002076200096f565b5b602002602001015173ffffffffffffffffffffffffffffffffffffffff160362000269576040517f08c379a00000000000000000000000000000000000000000000000000000000081526004016200026090620009ee565b60405180910390fd5b600073ffffffffffffffffffffffffffffffffffffffff168382815181106200029757620002966200096f565b5b602002602001015173ffffffffffffffffffffffffffffffffffffffff1603620002f8576040517f08c379a0000000000000000000000000000000000000000000000000000000008152600401620002ef9062000a60565b60405180910390fd5b8080620003059062000abb565b915050620001d0565b5082600390805190602001906200032792919062000516565b5080600560006101000a81548173ffffffffffffffffffffffffffffffffffffffff021916908373ffffffffffffffffffffffffffffffffffffffff16021790555060005b600380549050811015620004485782818151811062000390576200038f6200096f565b5b602002602001015160026000868481518110620003b257620003b16200096f565b5b602002602001015173ffffffffffffffffffffffffffffffffffffffff1673ffffffffffffffffffffffffffffffffffffffff16815260200190815260200160002060006101000a81548173ffffffffffffffffffffffffffffffffffffffff021916908373ffffffffffffffffffffffffffffffffffffffff16021790555080806200043f9062000abb565b9150506200036c565b5050505062000b08565b60008060009054906101000a900473ffffffffffffffffffffffffffffffffffffffff169050816000806101000a81548173ffffffffffffffffffffffffffffffffffffffff021916908373ffffffffffffffffffffffffffffffffffffffff1602179055508173ffffffffffffffffffffffffffffffffffffffff168173ffffffffffffffffffffffffffffffffffffffff167f8be0079c531659141344cd1fd0a4f28419497f9722a3daafe3b4186f6b6457e060405160405180910390a35050565b82805482825590600052602060002090810192821562000592579160200282015b82811115620005915782518260006101000a81548173ffffffffffffffffffffffffffffffffffffffff021916908373ffffffffffffffffffffffffffffffffffffffff1602179055509160200191906001019062000537565b5b509050620005a19190620005a5565b5090565b5b80821115620005c0576000816000905550600101620005a6565b5090565b6000604051905090565b600080fd5b600080fd5b600080fd5b6000601f19601f8301169050919050565b7f4e487b7100000000000000000000000000000000000000000000000000000000600052604160045260246000fd5b6200062882620005dd565b810181811067ffffffffffffffff821117156200064a5762000649620005ee565b5b80604052505050565b60006200065f620005c4565b90506200066d82826200061d565b919050565b600067ffffffffffffffff82111562000690576200068f620005ee565b5b602082029050602081019050919050565b600080fd5b600073ffffffffffffffffffffffffffffffffffffffff82169050919050565b6000620006d382620006a6565b9050919050565b620006e581620006c6565b8114620006f157600080fd5b50565b6000815190506200070581620006da565b92915050565b6000620007226200071c8462000672565b62000653565b90508083825260208201905060208402830185811115620007485762000747620006a1565b5b835b81811015620007755780620007608882620006f4565b8452602084019350506020810190506200074a565b5050509392505050565b600082601f830112620007975762000796620005d8565b5b8151620007a98482602086016200070b565b91505092915050565b600080600060608486031215620007ce57620007cd620005ce565b5b600084015167ffffffffffffffff811115620007ef57620007ee620005d3565b5b620007fd868287016200077f565b935050602084015167ffffffffffffffff811115620008215762000820620005d3565b5b6200082f868287016200077f565b92505060406200084286828701620006f4565b9150509250925092565b6200085781620006c6565b82525050565b60006020820190506200087460008301846200084c565b92915050565b600082825260208201905092915050565b7f4d69736d61746368656420746f6b656e7320616e6420706f6f6c732e00000000600082015250565b6000620008c3601c836200087a565b9150620008d0826200088b565b602082019050919050565b60006020820190508181036000830152620008f681620008b4565b9050919050565b7f496e76616c696420616464726573730000000000000000000000000000000000600082015250565b600062000935600f836200087a565b91506200094282620008fd565b602082019050919050565b60006020820190508181036000830152620009688162000926565b9050919050565b7f4e487b7100000000000000000000000000000000000000000000000000000000600052603260045260246000fd5b7f496e76616c696420746f6b656e20616464726573730000000000000000000000600082015250565b6000620009d66015836200087a565b9150620009e3826200099e565b602082019050919050565b6000602082019050818103600083015262000a0981620009c7565b9050919050565b7f496e76616c696420706f6f6c2061646472657373000000000000000000000000600082015250565b600062000a486014836200087a565b915062000a558262000a10565b602082019050919050565b6000602082019050818103600083015262000a7b8162000a39565b9050919050565b7f4e487b7100000000000000000000000000000000000000000000000000000000600052601160045260246000fd5b6000819050919050565b600062000ac88262000ab1565b91507fffffffffffffffffffffffffffffffffffffffffffffffffffffffffffffffff820362000afd5762000afc62000a82565b5b600182019050919050565b6132698062000b186000396000f3fe608060405234801561001057600080fd5b50600436106101005760003560e01c80636f4cf08e11610097578063989796b511610066578063989796b51461029a578063a5d5db0c146102ca578063c6255626146102e6578063f2fde38b1461031657610100565b80636f4cf08e14610236578063715018a61461025457806389a302711461025e5780638da5cb5b1461027c57610100565b8063350c35e9116100d3578063350c35e91461019d5780634b8a3529146101b957806367da0163146101d55780636c648fc41461020657610100565b806322867d7814610105578063240028e814610121578063293a5077146101515780632f86556814610181575b600080fd5b61011f600480360381019061011a9190612849565b610332565b005b61013b600480360381019061013691906128b5565b6107da565b60405161014891906128fd565b60405180910390f35b61016b600480360381019061016691906128b5565b610888565b6040516101789190612927565b60405180910390f35b61019b600480360381019061019691906128b5565b610a56565b005b6101b760048036038101906101b29190612849565b61189c565b005b6101d360048036038101906101ce9190612849565b611bbf565b005b6101ef60048036038101906101ea9190612942565b611f3b565b6040516101fd929190612982565b60405180910390f35b610220600480360381019061021b91906128b5565b612049565b60405161022d9190612927565b60405180910390f35b61023e612217565b60405161024b9190612a0a565b60405180910390f35b61025c61223d565b005b610266612251565b6040516102739190612a34565b60405180910390f35b610284612277565b6040516102919190612a34565b60405180910390f35b6102b460048036038101906102af9190612a4f565b6122a0565b6040516102c19190612a9d565b60405180910390f35b6102e460048036038101906102df9190612849565b6122d3565b005b61030060048036038101906102fb9190612ab8565b612586565b60405161030d9190612a34565b60405180910390f35b610330600480360381019061032b91906128b5565b6125c5565b005b60008111610375576040517f08c379a000000000000000000000000000000000000000000000000000000000815260040161036c90612b42565b60405180910390fd5b80600160003373ffffffffffffffffffffffffffffffffffffffff1673ffffffffffffffffffffffffffffffffffffffff16815260200190815260200160002060010160008473ffffffffffffffffffffffffffffffffffffffff1673ffffffffffffffffffffffffffffffffffffffff168152602001908152602001600020541015610437576040517f08c379a000000000000000000000000000000000000000000000000000000000815260040161042e90612bae565b60405180910390fd5b600060646002836104489190612bfd565b6104529190612c6e565b9050600081836104629190612c9f565b905082600160003373ffffffffffffffffffffffffffffffffffffffff1673ffffffffffffffffffffffffffffffffffffffff16815260200190815260200160002060010160008673ffffffffffffffffffffffffffffffffffffffff1673ffffffffffffffffffffffffffffffffffffffff16815260200190815260200160002060008282546104f39190612c9f565b925050819055508373ffffffffffffffffffffffffffffffffffffffff166323b872dd33600260008873ffffffffffffffffffffffffffffffffffffffff1673ffffffffffffffffffffffffffffffffffffffff16815260200190815260200160002060009054906101000a900473ffffffffffffffffffffffffffffffffffffffff16846040518463ffffffff1660e01b815260040161059693929190612cd3565b6020604051808303816000875af11580156105b5573d6000803e3d6000fd5b505050506040513d601f19601f820116820180604052508101906105d99190612d36565b508373ffffffffffffffffffffffffffffffffffffffff166323b872dd33600260008873ffffffffffffffffffffffffffffffffffffffff1673ffffffffffffffffffffffffffffffffffffffff16815260200190815260200160002060009054906101000a900473ffffffffffffffffffffffffffffffffffffffff16856040518463ffffffff1660e01b815260040161067693929190612cd3565b6020604051808303816000875af1158015610695573d6000803e3d6000fd5b505050506040513d601f19601f820116820180604052508101906106b99190612d36565b50600260008573ffffffffffffffffffffffffffffffffffffffff1673ffffffffffffffffffffffffffffffffffffffff16815260200190815260200160002060009054906101000a900473ffffffffffffffffffffffffffffffffffffffff1673ffffffffffffffffffffffffffffffffffffffff1663447ffec1836040518263ffffffff1660e01b81526004016107529190612927565b600060405180830381600087803b15801561076c57600080fd5b505af1158015610780573d6000803e3d6000fd5b505050503373ffffffffffffffffffffffffffffffffffffffff167f0a3fbbea70e93f2daafa3102f5c9a1b8315e6d7a1e43e4bc020bc1162327470a85856040516107cc929190612d84565b60405180910390a250505050565b600080600090505b60038054905081101561087d578273ffffffffffffffffffffffffffffffffffffffff166003828154811061081a57610819612dad565b5b9060005260206000200160009054906101000a900473ffffffffffffffffffffffffffffffffffffffff1673ffffffffffffffffffffffffffffffffffffffff160361086a576001915050610883565b808061087590612ddc565b9150506107e2565b50600090505b919050565b6000806000905060005b600380549050811015610a4c576000600382815481106108b5576108b4612dad565b5b9060005260206000200160009054906101000a900473ffffffffffffffffffffffffffffffffffffffff1690506000600160008773ffffffffffffffffffffffffffffffffffffffff1673ffffffffffffffffffffffffffffffffffffffff16815260200190815260200160002060010160008373ffffffffffffffffffffffffffffffffffffffff1673ffffffffffffffffffffffffffffffffffffffff1681526020019081526020016000205490506000811115610a3757670de0b6b3a7640000600560009054906101000a900473ffffffffffffffffffffffffffffffffffffffff1673ffffffffffffffffffffffffffffffffffffffff1663da540ca0846040518263ffffffff1660e01b81526004016109d39190612a34565b602060405180830381865afa1580156109f0573d6000803e3d6000fd5b505050506040513d601f19601f82011682018060405250810190610a149190612e39565b82610a1f9190612bfd565b610a299190612c6e565b84610a349190612e66565b93505b50508080610a4490612ddc565b915050610892565b5080915050919050565b6000610a6182612049565b90506000610a6e83610888565b9050606981606484610a809190612bfd565b610a8a9190612c6e565b1115610acb576040517f08c379a0000000000000000000000000000000000000000000000000000000008152600401610ac290612ee6565b60405180910390fd5b60005b6003805490508110156110c957600060038281548110610af157610af0612dad565b5b9060005260206000200160009054906101000a900473ffffffffffffffffffffffffffffffffffffffff1690506000600160008773ffffffffffffffffffffffffffffffffffffffff1673ffffffffffffffffffffffffffffffffffffffff16815260200190815260200160002060010160008373ffffffffffffffffffffffffffffffffffffffff1673ffffffffffffffffffffffffffffffffffffffff1681526020019081526020016000205490506000600160008873ffffffffffffffffffffffffffffffffffffffff1673ffffffffffffffffffffffffffffffffffffffff16815260200190815260200160002060000160008473ffffffffffffffffffffffffffffffffffffffff1673ffffffffffffffffffffffffffffffffffffffff168152602001908152602001600020549050600082118015610c365750600081115b156110b357600082821015610c4b5781610c4d565b825b90508373ffffffffffffffffffffffffffffffffffffffff1663095ea7b3600260008773ffffffffffffffffffffffffffffffffffffffff1673ffffffffffffffffffffffffffffffffffffffff16815260200190815260200160002060009054906101000a900473ffffffffffffffffffffffffffffffffffffffff16836040518363ffffffff1660e01b8152600401610ce9929190612f06565b6020604051808303816000875af1158015610d08573d6000803e3d6000fd5b505050506040513d601f19601f82011682018060405250810190610d2c9190612d36565b50600260008573ffffffffffffffffffffffffffffffffffffffff1673ffffffffffffffffffffffffffffffffffffffff16815260200190815260200160002060009054906101000a900473ffffffffffffffffffffffffffffffffffffffff1673ffffffffffffffffffffffffffffffffffffffff1663371fd8e6826040518263ffffffff1660e01b8152600401610dc59190612927565b600060405180830381600087803b158015610ddf57600080fd5b505af1158015610df3573d6000803e3d6000fd5b5050505080600160008a73ffffffffffffffffffffffffffffffffffffffff1673ffffffffffffffffffffffffffffffffffffffff16815260200190815260200160002060010160008673ffffffffffffffffffffffffffffffffffffffff1673ffffffffffffffffffffffffffffffffffffffff1681526020019081526020016000206000828254610e869190612c9f565b9250508190555080600160008a73ffffffffffffffffffffffffffffffffffffffff1673ffffffffffffffffffffffffffffffffffffffff16815260200190815260200160002060000160008673ffffffffffffffffffffffffffffffffffffffff1673ffffffffffffffffffffffffffffffffffffffff1681526020019081526020016000206000828254610f1c9190612c9f565b92505081905550670de0b6b3a7640000600560009054906101000a900473ffffffffffffffffffffffffffffffffffffffff1673ffffffffffffffffffffffffffffffffffffffff1663da540ca0866040518263ffffffff1660e01b8152600401610f879190612a34565b602060405180830381865afa158015610fa4573d6000803e3d6000fd5b505050506040513d601f19601f82011682018060405250810190610fc89190612e39565b82610fd39190612bfd565b610fdd9190612c6e565b86610fe89190612c9f565b9550670de0b6b3a7640000600560009054906101000a900473ffffffffffffffffffffffffffffffffffffffff1673ffffffffffffffffffffffffffffffffffffffff1663da540ca0866040518263ffffffff1660e01b815260040161104e9190612a34565b602060405180830381865afa15801561106b573d6000803e3d6000fd5b505050506040513d601f19601f8201168201806040525081019061108f9190612e39565b8261109a9190612bfd565b6110a49190612c6e565b876110af9190612c9f565b9650505b50505080806110c190612ddc565b915050610ace565b5060008111156118545760005b600380549050811015611852576000600382815481106110f9576110f8612dad565b5b9060005260206000200160009054906101000a900473ffffffffffffffffffffffffffffffffffffffff1690506000600160008773ffffffffffffffffffffffffffffffffffffffff1673ffffffffffffffffffffffffffffffffffffffff16815260200190815260200160002060010160008373ffffffffffffffffffffffffffffffffffffffff1673ffffffffffffffffffffffffffffffffffffffff168152602001908152602001600020549050600081111561182e5760005b60038054905081101561182c5780840315611819576000600382815481106111e1576111e0612dad565b5b9060005260206000200160009054906101000a900473ffffffffffffffffffffffffffffffffffffffff1690506000600160008a73ffffffffffffffffffffffffffffffffffffffff1673ffffffffffffffffffffffffffffffffffffffff16815260200190815260200160002060000160008373ffffffffffffffffffffffffffffffffffffffff1673ffffffffffffffffffffffffffffffffffffffff1681526020019081526020016000205490506000811115611816576000670de0b6b3a7640000600560009054906101000a900473ffffffffffffffffffffffffffffffffffffffff1673ffffffffffffffffffffffffffffffffffffffff1663da540ca0886040518263ffffffff1660e01b81526004016113019190612a34565b602060405180830381865afa15801561131e573d6000803e3d6000fd5b505050506040513d601f19601f820116820180604052508101906113429190612e39565b8661134d9190612bfd565b6113579190612c6e565b90506000670de0b6b3a7640000600560009054906101000a900473ffffffffffffffffffffffffffffffffffffffff1673ffffffffffffffffffffffffffffffffffffffff1663da540ca0866040518263ffffffff1660e01b81526004016113bf9190612a34565b602060405180830381865afa1580156113dc573d6000803e3d6000fd5b505050506040513d601f19601f820116820180604052508101906114009190612e39565b8461140b9190612bfd565b6114159190612c6e565b90506000828210156114275781611429565b825b90506000600560009054906101000a900473ffffffffffffffffffffffffffffffffffffffff1673ffffffffffffffffffffffffffffffffffffffff166343d91bf1878b888661012c4261147d9190612e66565b6040518663ffffffff1660e01b815260040161149d959493929190612f2f565b6020604051808303816000875af11580156114bc573d6000803e3d6000fd5b505050506040513d601f19601f820116820180604052508101906114e09190612e39565b90508873ffffffffffffffffffffffffffffffffffffffff1663095ea7b3600260008c73ffffffffffffffffffffffffffffffffffffffff1673ffffffffffffffffffffffffffffffffffffffff16815260200190815260200160002060009054906101000a900473ffffffffffffffffffffffffffffffffffffffff16836040518363ffffffff1660e01b815260040161157c929190612f06565b6020604051808303816000875af115801561159b573d6000803e3d6000fd5b505050506040513d601f19601f820116820180604052508101906115bf9190612d36565b50600260008a73ffffffffffffffffffffffffffffffffffffffff1673ffffffffffffffffffffffffffffffffffffffff16815260200190815260200160002060009054906101000a900473ffffffffffffffffffffffffffffffffffffffff1673ffffffffffffffffffffffffffffffffffffffff1663371fd8e6826040518263ffffffff1660e01b81526004016116589190612927565b600060405180830381600087803b15801561167257600080fd5b505af1158015611686573d6000803e3d6000fd5b505050508388826116979190612bfd565b6116a19190612c6e565b600160008f73ffffffffffffffffffffffffffffffffffffffff1673ffffffffffffffffffffffffffffffffffffffff16815260200190815260200160002060010160008b73ffffffffffffffffffffffffffffffffffffffff1673ffffffffffffffffffffffffffffffffffffffff168152602001908152602001600020600082825461172f9190612c9f565b925050819055508285836117439190612bfd565b61174d9190612c6e565b600160008f73ffffffffffffffffffffffffffffffffffffffff1673ffffffffffffffffffffffffffffffffffffffff16815260200190815260200160002060000160008873ffffffffffffffffffffffffffffffffffffffff1673ffffffffffffffffffffffffffffffffffffffff16815260200190815260200160002060008282546117db9190612c9f565b92505081905550818b6117ee9190612c9f565b9a50818c6117fc9190612c9f565b9b5060008b036118115750505050505061182c565b505050505b50505b808061182490612ddc565b9150506111b6565b505b6000840361183d575050611852565b5050808061184a90612ddc565b9150506110d6565b505b8273ffffffffffffffffffffffffffffffffffffffff167f1e1ef858062a7196d1891e397a5cde9891e6ddf61a81e9d269a3aaa7a95dacd860405160405180910390a2505050565b600081116118df576040517f08c379a00000000000000000000000000000000000000000000000000000000081526004016118d690612fce565b60405180910390fd5b80600160003373ffffffffffffffffffffffffffffffffffffffff1673ffffffffffffffffffffffffffffffffffffffff16815260200190815260200160002060000160008473ffffffffffffffffffffffffffffffffffffffff1673ffffffffffffffffffffffffffffffffffffffff1681526020019081526020016000205410156119a1576040517f08c379a00000000000000000000000000000000000000000000000000000000081526004016119989061303a565b60405180910390fd5b60006119ac33612049565b905060006119b933610888565b9050606e816064846119cb9190612bfd565b6119d59190612c6e565b1015611a16576040517f08c379a0000000000000000000000000000000000000000000000000000000008152600401611a0d906130a6565b60405180910390fd5b82600160003373ffffffffffffffffffffffffffffffffffffffff1673ffffffffffffffffffffffffffffffffffffffff16815260200190815260200160002060000160008673ffffffffffffffffffffffffffffffffffffffff1673ffffffffffffffffffffffffffffffffffffffff1681526020019081526020016000206000828254611aa59190612c9f565b925050819055508373ffffffffffffffffffffffffffffffffffffffff1663a9059cbb33856040518363ffffffff1660e01b8152600401611ae7929190612f06565b6020604051808303816000875af1158015611b06573d6000803e3d6000fd5b505050506040513d601f19601f82011682018060405250810190611b2a9190612d36565b611b69576040517f08c379a0000000000000000000000000000000000000000000000000000000008152600401611b6090613112565b60405180910390fd5b3373ffffffffffffffffffffffffffffffffffffffff167f45892a46e6cef329bb642da6d69846d324db43d19008edc141ed82382eda1bee8585604051611bb1929190612d84565b60405180910390a250505050565b60008111611c02576040517f08c379a0000000000000000000000000000000000000000000000000000000008152600401611bf990612fce565b60405180910390fd5b611c0b826107da565b611c4a576040517f08c379a0000000000000000000000000000000000000000000000000000000008152600401611c419061317e565b60405180910390fd5b6000611c5533612049565b90506000670de0b6b3a7640000600560009054906101000a900473ffffffffffffffffffffffffffffffffffffffff1673ffffffffffffffffffffffffffffffffffffffff1663da540ca0866040518263ffffffff1660e01b8152600401611cbd9190612a34565b602060405180830381865afa158015611cda573d6000803e3d6000fd5b505050506040513d601f19601f82011682018060405250810190611cfe9190612e39565b84611d099190612bfd565b611d139190612c6e565b611d1c33610888565b611d269190612e66565b9050606e81606484611d389190612bfd565b611d429190612c6e565b1015611d83576040517f08c379a0000000000000000000000000000000000000000000000000000000008152600401611d7a906131ea565b60405180910390fd5b82600160003373ffffffffffffffffffffffffffffffffffffffff1673ffffffffffffffffffffffffffffffffffffffff16815260200190815260200160002060010160008673ffffffffffffffffffffffffffffffffffffffff1673ffffffffffffffffffffffffffffffffffffffff1681526020019081526020016000206000828254611e129190612e66565b92505081905550600260008573ffffffffffffffffffffffffffffffffffffffff1673ffffffffffffffffffffffffffffffffffffffff16815260200190815260200160002060009054906101000a900473ffffffffffffffffffffffffffffffffffffffff1673ffffffffffffffffffffffffffffffffffffffff16634b3fd14884336040518363ffffffff1660e01b8152600401611eb392919061320a565b600060405180830381600087803b158015611ecd57600080fd5b505af1158015611ee1573d6000803e3d6000fd5b505050503373ffffffffffffffffffffffffffffffffffffffff167f3fc499aeb0bb1cb58b6de8b02b3f86f4e7394e9690bef0110e32ced8a56310458585604051611f2d929190612d84565b60405180910390a250505050565b600080600160008573ffffffffffffffffffffffffffffffffffffffff1673ffffffffffffffffffffffffffffffffffffffff16815260200190815260200160002060000160008473ffffffffffffffffffffffffffffffffffffffff1673ffffffffffffffffffffffffffffffffffffffff168152602001908152602001600020549150600160008573ffffffffffffffffffffffffffffffffffffffff1673ffffffffffffffffffffffffffffffffffffffff16815260200190815260200160002060010160008473ffffffffffffffffffffffffffffffffffffffff1673ffffffffffffffffffffffffffffffffffffffff1681526020019081526020016000205490509250929050565b6000806000905060005b60038054905081101561220d5760006003828154811061207657612075612dad565b5b9060005260206000200160009054906101000a900473ffffffffffffffffffffffffffffffffffffffff1690506000600160008773ffffffffffffffffffffffffffffffffffffffff1673ffffffffffffffffffffffffffffffffffffffff16815260200190815260200160002060000160008373ffffffffffffffffffffffffffffffffffffffff1673ffffffffffffffffffffffffffffffffffffffff16815260200190815260200160002054905060008111156121f857670de0b6b3a7640000600560009054906101000a900473ffffffffffffffffffffffffffffffffffffffff1673ffffffffffffffffffffffffffffffffffffffff1663da540ca0846040518263ffffffff1660e01b81526004016121949190612a34565b602060405180830381865afa1580156121b1573d6000803e3d6000fd5b505050506040513d601f19601f820116820180604052508101906121d59190612e39565b826121e09190612bfd565b6121ea9190612c6e565b846121f59190612e66565b93505b5050808061220590612ddc565b915050612053565b5080915050919050565b600560009054906101000a900473ffffffffffffffffffffffffffffffffffffffff1681565b61224561264b565b61224f60006126d2565b565b600460009054906101000a900473ffffffffffffffffffffffffffffffffffffffff1681565b60008060009054906101000a900473ffffffffffffffffffffffffffffffffffffffff16905090565b60026020528060005260406000206000915054906101000a900473ffffffffffffffffffffffffffffffffffffffff1681565b60008111612316576040517f08c379a000000000000000000000000000000000000000000000000000000000815260040161230d90612fce565b60405180910390fd5b61231f826107da565b61235e576040517f08c379a00000000000000000000000000000000000000000000000000000000081526004016123559061317e565b60405180910390fd5b8173ffffffffffffffffffffffffffffffffffffffff1663095ea7b333836040518363ffffffff1660e01b8152600401612399929190612f06565b6020604051808303816000875af11580156123b8573d6000803e3d6000fd5b505050506040513d601f19601f820116820180604052508101906123dc9190612d36565b508173ffffffffffffffffffffffffffffffffffffffff166323b872dd3330846040518463ffffffff1660e01b815260040161241a93929190612cd3565b6020604051808303816000875af1158015612439573d6000803e3d6000fd5b505050506040513d601f19601f8201168201806040525081019061245d9190612d36565b61249c576040517f08c379a000000000000000000000000000000000000000000000000000000000815260040161249390613112565b60405180910390fd5b80600160003373ffffffffffffffffffffffffffffffffffffffff1673ffffffffffffffffffffffffffffffffffffffff16815260200190815260200160002060000160008473ffffffffffffffffffffffffffffffffffffffff1673ffffffffffffffffffffffffffffffffffffffff168152602001908152602001600020600082825461252b9190612e66565b925050819055503373ffffffffffffffffffffffffffffffffffffffff167ff1c0dd7e9b98bbff859029005ef89b127af049cd18df1a8d79f0b7e019911e56838360405161257a929190612d84565b60405180910390a25050565b6003818154811061259657600080fd5b906000526020600020016000915054906101000a900473ffffffffffffffffffffffffffffffffffffffff1681565b6125cd61264b565b600073ffffffffffffffffffffffffffffffffffffffff168173ffffffffffffffffffffffffffffffffffffffff160361263f5760006040517f1e4fbdf70000000000000000000000000000000000000000000000000000000081526004016126369190612a34565b60405180910390fd5b612648816126d2565b50565b612653612796565b73ffffffffffffffffffffffffffffffffffffffff16612671612277565b73ffffffffffffffffffffffffffffffffffffffff16146126d057612694612796565b6040517f118cdaa70000000000000000000000000000000000000000000000000000000081526004016126c79190612a34565b60405180910390fd5b565b60008060009054906101000a900473ffffffffffffffffffffffffffffffffffffffff169050816000806101000a81548173ffffffffffffffffffffffffffffffffffffffff021916908373ffffffffffffffffffffffffffffffffffffffff1602179055508173ffffffffffffffffffffffffffffffffffffffff168173ffffffffffffffffffffffffffffffffffffffff167f8be0079c531659141344cd1fd0a4f28419497f9722a3daafe3b4186f6b6457e060405160405180910390a35050565b600033905090565b600080fd5b600073ffffffffffffffffffffffffffffffffffffffff82169050919050565b60006127ce826127a3565b9050919050565b60006127e0826127c3565b9050919050565b6127f0816127d5565b81146127fb57600080fd5b50565b60008135905061280d816127e7565b92915050565b6000819050919050565b61282681612813565b811461283157600080fd5b50565b6000813590506128438161281d565b92915050565b600080604083850312156128605761285f61279e565b5b600061286e858286016127fe565b925050602061287f85828601612834565b9150509250929050565b612892816127c3565b811461289d57600080fd5b50565b6000813590506128af81612889565b92915050565b6000602082840312156128cb576128ca61279e565b5b60006128d9848285016128a0565b91505092915050565b60008115159050919050565b6128f7816128e2565b82525050565b600060208201905061291260008301846128ee565b92915050565b61292181612813565b82525050565b600060208201905061293c6000830184612918565b92915050565b600080604083850312156129595761295861279e565b5b6000612967858286016128a0565b9250506020612978858286016127fe565b9150509250929050565b60006040820190506129976000830185612918565b6129a46020830184612918565b9392505050565b6000819050919050565b60006129d06129cb6129c6846127a3565b6129ab565b6127a3565b9050919050565b60006129e2826129b5565b9050919050565b60006129f4826129d7565b9050919050565b612a04816129e9565b82525050565b6000602082019050612a1f60008301846129fb565b92915050565b612a2e816127c3565b82525050565b6000602082019050612a496000830184612a25565b92915050565b600060208284031215612a6557612a6461279e565b5b6000612a73848285016127fe565b91505092915050565b6000612a87826129d7565b9050919050565b612a9781612a7c565b82525050565b6000602082019050612ab26000830184612a8e565b92915050565b600060208284031215612ace57612acd61279e565b5b6000612adc84828501612834565b91505092915050565b600082825260208201905092915050565b7f416d6f756e74206d7573742062652067726561746572207468616e2030000000600082015250565b6000612b2c601d83612ae5565b9150612b3782612af6565b602082019050919050565b60006020820190508181036000830152612b5b81612b1f565b9050919050565b7f496e73756666696369656e7420646562742e0000000000000000000000000000600082015250565b6000612b98601283612ae5565b9150612ba382612b62565b602082019050919050565b60006020820190508181036000830152612bc781612b8b565b9050919050565b7f4e487b7100000000000000000000000000000000000000000000000000000000600052601160045260246000fd5b6000612c0882612813565b9150612c1383612813565b9250828202612c2181612813565b91508282048414831517612c3857612c37612bce565b5b5092915050565b7f4e487b7100000000000000000000000000000000000000000000000000000000600052601260045260246000fd5b6000612c7982612813565b9150612c8483612813565b925082612c9457612c93612c3f565b5b828204905092915050565b6000612caa82612813565b9150612cb583612813565b9250828203905081811115612ccd57612ccc612bce565b5b92915050565b6000606082019050612ce86000830186612a25565b612cf56020830185612a25565b612d026040830184612918565b949350505050565b612d13816128e2565b8114612d1e57600080fd5b50565b600081519050612d3081612d0a565b92915050565b600060208284031215612d4c57612d4b61279e565b5b6000612d5a84828501612d21565b91505092915050565b6000612d6e826129d7565b9050919050565b612d7e81612d63565b82525050565b6000604082019050612d996000830185612d75565b612da66020830184612918565b9392505050565b7f4e487b7100000000000000000000000000000000000000000000000000000000600052603260045260246000fd5b6000612de782612813565b91507fffffffffffffffffffffffffffffffffffffffffffffffffffffffffffffffff8203612e1957612e18612bce565b5b600182019050919050565b600081519050612e338161281d565b92915050565b600060208284031215612e4f57612e4e61279e565b5b6000612e5d84828501612e24565b91505092915050565b6000612e7182612813565b9150612e7c83612813565b9250828201905080821115612e9457612e93612bce565b5b92915050565b7f434452206d757374206265203c3d20313035252e000000000000000000000000600082015250565b6000612ed0601483612ae5565b9150612edb82612e9a565b602082019050919050565b60006020820190508181036000830152612eff81612ec3565b9050919050565b6000604082019050612f1b6000830185612a25565b612f286020830184612918565b9392505050565b600060a082019050612f446000830188612a25565b612f516020830187612a25565b612f5e6040830186612918565b612f6b6060830185612918565b612f786080830184612918565b9695505050505050565b7f416d6f756e74206d7573742062652067726561746572207468616e20302e0000600082015250565b6000612fb8601e83612ae5565b9150612fc382612f82565b602082019050919050565b60006020820190508181036000830152612fe781612fab565b9050919050565b7f496e73756666696369656e7420636f6c6c61746572616c2e0000000000000000600082015250565b6000613024601883612ae5565b915061302f82612fee565b602082019050919050565b6000602082019050818103600083015261305381613017565b9050919050565b7f434452206d757374206265203e3d203131302e00000000000000000000000000600082015250565b6000613090601383612ae5565b915061309b8261305a565b602082019050919050565b600060208201905081810360008301526130bf81613083565b9050919050565b7f546f6b656e207472616e73666572206661696c65642e00000000000000000000600082015250565b60006130fc601683612ae5565b9150613107826130c6565b602082019050919050565b6000602082019050818103600083015261312b816130ef565b9050919050565b7f546f6b656e206e6f7420737570706f727465642e000000000000000000000000600082015250565b6000613168601483612ae5565b915061317382613132565b602082019050919050565b600060208201905081810360008301526131978161315b565b9050919050565b7f434452206d757374206265203e3d20313130252e000000000000000000000000600082015250565b60006131d4601483612ae5565b91506131df8261319e565b602082019050919050565b60006020820190508181036000830152613203816131c7565b9050919050565b600060408201905061321f6000830185612918565b61322c6020830184612a25565b939250505056fea2646970667358221220b10c2e3f7a0868279b161de15426a839cd7a030b76eb0cfdf9ee904be4290e4364736f6c63430008140033",
  "linkReferences": {},
  "deployedLinkReferences": {}
}