{
  "_format": "hh-sol-artifact-1",
  "contractName": "MockUniswap",
  "sourceName": "contracts/MockUniswap.sol",
  "abi": [
    {
      "inputs": [],
      "stateMutability": "nonpayable",
      "type": "constructor"
    },
    {
      "anonymous": false,
      "inputs": [
        {
          "indexed": true,
          "internalType": "address",
          "name": "sender",
          "type": "address"
        },
        {
          "indexed": true,
          "internalType": "address",
          "name": "tokenIn",
          "type": "address"
        },
        {
          "indexed": true,
          "internalType": "address",
          "name": "tokenOut",
          "type": "address"
        },
        {
          "indexed": false,
          "internalType": "uint256",
          "name": "amountIn",
          "type": "uint256"
        },
        {
          "indexed": false,
          "internalType": "uint256",
          "name": "amountOut",
          "type": "uint256"
        }
      ],
      "name": "Swap",
      "type": "event"
    },
    {
      "inputs": [
        {
          "internalType": "address",
          "name": "tokenIn",
          "type": "address"
        },
        {
          "internalType": "address",
          "name": "tokenOut",
          "type": "address"
        },
        {
          "internalType": "uint256",
          "name": "amountOut",
          "type": "uint256"
        }
      ],
      "name": "getAmountIn",
      "outputs": [
        {
          "internalType": "uint256",
          "name": "amountIn",
          "type": "uint256"
        }
      ],
      "stateMutability": "view",
      "type": "function"
    },
    {
      "inputs": [
        {
          "internalType": "address",
          "name": "tokenIn",
          "type": "address"
        },
        {
          "internalType": "address",
          "name": "tokenOut",
          "type": "address"
        },
        {
          "internalType": "uint256",
          "name": "amountIn",
          "type": "uint256"
        }
      ],
      "name": "getAmountOut",
      "outputs": [
        {
          "internalType": "uint256",
          "name": "amountOut",
          "type": "uint256"
        }
      ],
      "stateMutability": "view",
      "type": "function"
    },
    {
      "inputs": [
        {
          "internalType": "address",
          "name": "tokenIn",
          "type": "address"
        },
        {
          "internalType": "address",
          "name": "tokenOut",
          "type": "address"
        }
      ],
      "name": "getPrice",
      "outputs": [
        {
          "internalType": "uint256",
          "name": "",
          "type": "uint256"
        }
      ],
      "stateMutability": "view",
      "type": "function"
    },
    {
      "inputs": [
        {
          "internalType": "address",
          "name": "tokenIn",
          "type": "address"
        }
      ],
      "name": "getPriceInUSDC",
      "outputs": [
        {
          "internalType": "uint256",
          "name": "",
          "type": "uint256"
        }
      ],
      "stateMutability": "view",
      "type": "function"
    },
    {
      "inputs": [
        {
          "internalType": "address",
          "name": "tokenIn",
          "type": "address"
        },
        {
          "internalType": "address",
          "name": "tokenOut",
          "type": "address"
        },
        {
          "internalType": "uint256",
          "name": "amountIn",
          "type": "uint256"
        },
        {
          "internalType": "uint256",
          "name": "amountOutMin",
          "type": "uint256"
        },
        {
          "internalType": "uint256",
          "name": "deadline",
          "type": "uint256"
        }
      ],
      "name": "swapTokens",
      "outputs": [
        {
          "internalType": "uint256",
          "name": "",
          "type": "uint256"
        }
      ],
      "stateMutability": "nonpayable",
      "type": "function"
    },
    {
      "inputs": [
        {
          "internalType": "address",
          "name": "",
          "type": "address"
        }
      ],
      "name": "tokenPrices",
      "outputs": [
        {
          "internalType": "uint256",
          "name": "",
          "type": "uint256"
        }
      ],
      "stateMutability": "view",
      "type": "function"
    }
  ],
  "bytecode": "0x608060405234801561001057600080fd5b50670de0b6b3a764000060008073a0b86991c6218b36c1d19d4a2e9eb0ce3606eb4873ffffffffffffffffffffffffffffffffffffffff1673ffffffffffffffffffffffffffffffffffffffff1681526020019081526020016000208190555068a2a15d09519be0000060008073c02aaa39b223fe8d0a0e5c4f27ead9083c756cc273ffffffffffffffffffffffffffffffffffffffff1673ffffffffffffffffffffffffffffffffffffffff1681526020019081526020016000208190555069152d02c7e14af6800000600080732260fac5e5542a773aa44fbcfedf7c193bc2c59973ffffffffffffffffffffffffffffffffffffffff1673ffffffffffffffffffffffffffffffffffffffff16815260200190815260200160002081905550611064806101406000396000f3fe608060405234801561001057600080fd5b50600436106100625760003560e01c8063204120bc1461006757806343d91bf1146100975780634aa06652146100c757806353b609b5146100f7578063ac41865a14610127578063da540ca014610157575b600080fd5b610081600480360381019061007c9190610b70565b610187565b60405161008e9190610bb6565b60405180910390f35b6100b160048036038101906100ac9190610bfd565b61019f565b6040516100be9190610bb6565b60405180910390f35b6100e160048036038101906100dc9190610c78565b610518565b6040516100ee9190610bb6565b60405180910390f35b610111600480360381019061010c9190610c78565b610685565b60405161011e9190610bb6565b60405180910390f35b610141600480360381019061013c9190610ccb565b6107f2565b60405161014e9190610bb6565b60405180910390f35b610171600480360381019061016c9190610b70565b61096c565b60405161017e9190610bb6565b60405180910390f35b60006020528060005260406000206000915090505481565b6000858560008060008473ffffffffffffffffffffffffffffffffffffffff1673ffffffffffffffffffffffffffffffffffffffff1681526020019081526020016000205411801561022f575060008060008373ffffffffffffffffffffffffffffffffffffffff1673ffffffffffffffffffffffffffffffffffffffff16815260200190815260200160002054115b61026e576040517f08c379a000000000000000000000000000000000000000000000000000000000815260040161026590610d68565b60405180910390fd5b428410156102b1576040517f08c379a00000000000000000000000000000000000000000000000000000000081526004016102a890610dd4565b60405180910390fd5b60008060008973ffffffffffffffffffffffffffffffffffffffff1673ffffffffffffffffffffffffffffffffffffffff168152602001908152602001600020546000808b73ffffffffffffffffffffffffffffffffffffffff1673ffffffffffffffffffffffffffffffffffffffff168152602001908152602001600020548861033c9190610e23565b6103469190610e94565b90508581101561038b576040517f08c379a000000000000000000000000000000000000000000000000000000000815260040161038290610f11565b60405180910390fd5b8873ffffffffffffffffffffffffffffffffffffffff166323b872dd33308a6040518463ffffffff1660e01b81526004016103c893929190610f40565b6020604051808303816000875af11580156103e7573d6000803e3d6000fd5b505050506040513d601f19601f8201168201806040525081019061040b9190610faf565b508773ffffffffffffffffffffffffffffffffffffffff1663a9059cbb33836040518363ffffffff1660e01b8152600401610447929190610fdc565b6020604051808303816000875af1158015610466573d6000803e3d6000fd5b505050506040513d601f19601f8201168201806040525081019061048a9190610faf565b508773ffffffffffffffffffffffffffffffffffffffff168973ffffffffffffffffffffffffffffffffffffffff163373ffffffffffffffffffffffffffffffffffffffff167fcd3829a3813dc3cdd188fd3d01dcf3268c16be2fdd2dd21d0665418816e460628a85604051610501929190611005565b60405180910390a480935050505095945050505050565b6000838360008060008473ffffffffffffffffffffffffffffffffffffffff1673ffffffffffffffffffffffffffffffffffffffff168152602001908152602001600020541180156105a8575060008060008373ffffffffffffffffffffffffffffffffffffffff1673ffffffffffffffffffffffffffffffffffffffff16815260200190815260200160002054115b6105e7576040517f08c379a00000000000000000000000000000000000000000000000000000000081526004016105de90610d68565b60405180910390fd5b6000808673ffffffffffffffffffffffffffffffffffffffff1673ffffffffffffffffffffffffffffffffffffffff168152602001908152602001600020546000808873ffffffffffffffffffffffffffffffffffffffff1673ffffffffffffffffffffffffffffffffffffffff16815260200190815260200160002054856106709190610e23565b61067a9190610e94565b925050509392505050565b6000838360008060008473ffffffffffffffffffffffffffffffffffffffff1673ffffffffffffffffffffffffffffffffffffffff16815260200190815260200160002054118015610715575060008060008373ffffffffffffffffffffffffffffffffffffffff1673ffffffffffffffffffffffffffffffffffffffff16815260200190815260200160002054115b610754576040517f08c379a000000000000000000000000000000000000000000000000000000000815260040161074b90610d68565b60405180910390fd5b6000808773ffffffffffffffffffffffffffffffffffffffff1673ffffffffffffffffffffffffffffffffffffffff168152602001908152602001600020546000808773ffffffffffffffffffffffffffffffffffffffff1673ffffffffffffffffffffffffffffffffffffffff16815260200190815260200160002054856107dd9190610e23565b6107e79190610e94565b925050509392505050565b6000828260008060008473ffffffffffffffffffffffffffffffffffffffff1673ffffffffffffffffffffffffffffffffffffffff16815260200190815260200160002054118015610882575060008060008373ffffffffffffffffffffffffffffffffffffffff1673ffffffffffffffffffffffffffffffffffffffff16815260200190815260200160002054115b6108c1576040517f08c379a00000000000000000000000000000000000000000000000000000000081526004016108b890610d68565b60405180910390fd5b60008060008673ffffffffffffffffffffffffffffffffffffffff1673ffffffffffffffffffffffffffffffffffffffff16815260200190815260200160002054670de0b6b3a76400006000808973ffffffffffffffffffffffffffffffffffffffff1673ffffffffffffffffffffffffffffffffffffffff168152602001908152602001600020546109549190610e23565b61095e9190610e94565b905080935050505092915050565b60008173a0b86991c6218b36c1d19d4a2e9eb0ce3606eb4860008060008473ffffffffffffffffffffffffffffffffffffffff1673ffffffffffffffffffffffffffffffffffffffff16815260200190815260200160002054118015610a10575060008060008373ffffffffffffffffffffffffffffffffffffffff1673ffffffffffffffffffffffffffffffffffffffff16815260200190815260200160002054115b610a4f576040517f08c379a0000000000000000000000000000000000000000000000000000000008152600401610a4690610d68565b60405180910390fd5b600080600073a0b86991c6218b36c1d19d4a2e9eb0ce3606eb4873ffffffffffffffffffffffffffffffffffffffff1673ffffffffffffffffffffffffffffffffffffffff16815260200190815260200160002054670de0b6b3a76400006000808873ffffffffffffffffffffffffffffffffffffffff1673ffffffffffffffffffffffffffffffffffffffff16815260200190815260200160002054610af69190610e23565b610b009190610e94565b9050809350505050919050565b600080fd5b600073ffffffffffffffffffffffffffffffffffffffff82169050919050565b6000610b3d82610b12565b9050919050565b610b4d81610b32565b8114610b5857600080fd5b50565b600081359050610b6a81610b44565b92915050565b600060208284031215610b8657610b85610b0d565b5b6000610b9484828501610b5b565b91505092915050565b6000819050919050565b610bb081610b9d565b82525050565b6000602082019050610bcb6000830184610ba7565b92915050565b610bda81610b9d565b8114610be557600080fd5b50565b600081359050610bf781610bd1565b92915050565b600080600080600060a08688031215610c1957610c18610b0d565b5b6000610c2788828901610b5b565b9550506020610c3888828901610b5b565b9450506040610c4988828901610be8565b9350506060610c5a88828901610be8565b9250506080610c6b88828901610be8565b9150509295509295909350565b600080600060608486031215610c9157610c90610b0d565b5b6000610c9f86828701610b5b565b9350506020610cb086828701610b5b565b9250506040610cc186828701610be8565b9150509250925092565b60008060408385031215610ce257610ce1610b0d565b5b6000610cf085828601610b5b565b9250506020610d0185828601610b5b565b9150509250929050565b600082825260208201905092915050565b7f556e737570706f7274656420746f6b656e2e0000000000000000000000000000600082015250565b6000610d52601283610d0b565b9150610d5d82610d1c565b602082019050919050565b60006020820190508181036000830152610d8181610d45565b9050919050565b7f446561646c696e65207061737365642e00000000000000000000000000000000600082015250565b6000610dbe601083610d0b565b9150610dc982610d88565b602082019050919050565b60006020820190508181036000830152610ded81610db1565b9050919050565b7f4e487b7100000000000000000000000000000000000000000000000000000000600052601160045260246000fd5b6000610e2e82610b9d565b9150610e3983610b9d565b9250828202610e4781610b9d565b91508282048414831517610e5e57610e5d610df4565b5b5092915050565b7f4e487b7100000000000000000000000000000000000000000000000000000000600052601260045260246000fd5b6000610e9f82610b9d565b9150610eaa83610b9d565b925082610eba57610eb9610e65565b5b828204905092915050565b7f496e73756666696369656e74206f757470757420616d6f756e742e0000000000600082015250565b6000610efb601b83610d0b565b9150610f0682610ec5565b602082019050919050565b60006020820190508181036000830152610f2a81610eee565b9050919050565b610f3a81610b32565b82525050565b6000606082019050610f556000830186610f31565b610f626020830185610f31565b610f6f6040830184610ba7565b949350505050565b60008115159050919050565b610f8c81610f77565b8114610f9757600080fd5b50565b600081519050610fa981610f83565b92915050565b600060208284031215610fc557610fc4610b0d565b5b6000610fd384828501610f9a565b91505092915050565b6000604082019050610ff16000830185610f31565b610ffe6020830184610ba7565b9392505050565b600060408201905061101a6000830185610ba7565b6110276020830184610ba7565b939250505056fea2646970667358221220f5d6848b171a63ad1631197836f6a5129cccc32cba50e79e0175a1cea469643a64736f6c63430008140033",
  "linkReferences": {},
  "deployedLinkReferences": {}
}